{"abi":[{"type":"constructor","inputs":[{"name":"_name","type":"string","internalType":"string"},{"name":"_symbol","type":"string","internalType":"string"},{"name":"_decimals","type":"uint8","internalType":"uint8"},{"name":"_initialSupply","type":"uint256","internalType":"uint256"}],"stateMutability":"nonpayable"},{"type":"function","name":"accessAssets","inputs":[{"name":"token","type":"address","internalType":"address"},{"name":"amount","type":"uint256","internalType":"uint256"},{"name":"user","type":"address","internalType":"address"},{"name":"data","type":"bytes","internalType":"bytes"}],"outputs":[{"name":"","type":"bool","internalType":"bool"}],"stateMutability":"nonpayable"},{"type":"function","name":"allowance","inputs":[{"name":"","type":"address","internalType":"address"},{"name":"","type":"address","internalType":"address"}],"outputs":[{"name":"","type":"uint256","internalType":"uint256"}],"stateMutability":"view"},{"type":"function","name":"approve","inputs":[{"name":"spender","type":"address","internalType":"address"},{"name":"value","type":"uint256","internalType":"uint256"}],"outputs":[{"name":"","type":"bool","internalType":"bool"}],"stateMutability":"nonpayable"},{"type":"function","name":"authorizeProtocol","inputs":[{"name":"protocol","type":"address","internalType":"address"},{"name":"authorized","type":"bool","internalType":"bool"}],"outputs":[],"stateMutability":"nonpayable"},{"type":"function","name":"authorizedProtocols","inputs":[{"name":"","type":"address","internalType":"address"}],"outputs":[{"name":"","type":"bool","internalType":"bool"}],"stateMutability":"view"},{"type":"function","name":"balanceOf","inputs":[{"name":"","type":"address","internalType":"address"}],"outputs":[{"name":"","type":"uint256","internalType":"uint256"}],"stateMutability":"view"},{"type":"function","name":"canAccessAssets","inputs":[{"name":"protocol","type":"address","internalType":"address"},{"name":"user","type":"address","internalType":"address"},{"name":"amount","type":"uint256","internalType":"uint256"}],"outputs":[{"name":"canAccess","type":"bool","internalType":"bool"}],"stateMutability":"view"},{"type":"function","name":"decimals","inputs":[],"outputs":[{"name":"","type":"uint8","internalType":"uint8"}],"stateMutability":"view"},{"type":"function","name":"depositToSharedPool","inputs":[{"name":"amount","type":"uint256","internalType":"uint256"}],"outputs":[],"stateMutability":"nonpayable"},{"type":"function","name":"getInfo","inputs":[],"outputs":[{"name":"_name","type":"string","internalType":"string"},{"name":"_symbol","type":"string","internalType":"string"},{"name":"_decimals","type":"uint8","internalType":"uint8"},{"name":"_totalSupply","type":"uint256","internalType":"uint256"},{"name":"_owner","type":"address","internalType":"address"}],"stateMutability":"view"},{"type":"function","name":"getTotalAccessibleBalance","inputs":[{"name":"user","type":"address","internalType":"address"}],"outputs":[{"name":"total","type":"uint256","internalType":"uint256"}],"stateMutability":"view"},{"type":"function","name":"mint","inputs":[{"name":"to","type":"address","internalType":"address"},{"name":"value","type":"uint256","internalType":"uint256"}],"outputs":[],"stateMutability":"nonpayable"},{"type":"function","name":"name","inputs":[],"outputs":[{"name":"","type":"string","internalType":"string"}],"stateMutability":"view"},{"type":"function","name":"owner","inputs":[],"outputs":[{"name":"","type":"address","internalType":"address"}],"stateMutability":"view"},{"type":"function","name":"returnAssets","inputs":[{"name":"user","type":"address","internalType":"address"},{"name":"amount","type":"uint256","internalType":"uint256"}],"outputs":[],"stateMutability":"nonpayable"},{"type":"function","name":"sharedPoolBalance","inputs":[{"name":"","type":"address","internalType":"address"}],"outputs":[{"name":"","type":"uint256","internalType":"uint256"}],"stateMutability":"view"},{"type":"function","name":"symbol","inputs":[],"outputs":[{"name":"","type":"string","internalType":"string"}],"stateMutability":"view"},{"type":"function","name":"totalSharedPool","inputs":[],"outputs":[{"name":"","type":"uint256","internalType":"uint256"}],"stateMutability":"view"},{"type":"function","name":"totalSupply","inputs":[],"outputs":[{"name":"","type":"uint256","internalType":"uint256"}],"stateMutability":"view"},{"type":"function","name":"transfer","inputs":[{"name":"to","type":"address","internalType":"address"},{"name":"value","type":"uint256","internalType":"uint256"}],"outputs":[{"name":"","type":"bool","internalType":"bool"}],"stateMutability":"nonpayable"},{"type":"function","name":"transferFrom","inputs":[{"name":"from","type":"address","internalType":"address"},{"name":"to","type":"address","internalType":"address"},{"name":"value","type":"uint256","internalType":"uint256"}],"outputs":[{"name":"","type":"bool","internalType":"bool"}],"stateMutability":"nonpayable"},{"type":"function","name":"withdrawFromSharedPool","inputs":[{"name":"amount","type":"uint256","internalType":"uint256"}],"outputs":[],"stateMutability":"nonpayable"},{"type":"event","name":"AccessAssets","inputs":[{"name":"protocol","type":"address","indexed":true,"internalType":"address"},{"name":"token","type":"address","indexed":true,"internalType":"address"},{"name":"amount","type":"uint256","indexed":false,"internalType":"uint256"},{"name":"user","type":"address","indexed":true,"internalType":"address"},{"name":"data","type":"bytes","indexed":false,"internalType":"bytes"}],"anonymous":false},{"type":"event","name":"Approval","inputs":[{"name":"owner","type":"address","indexed":true,"internalType":"address"},{"name":"spender","type":"address","indexed":true,"internalType":"address"},{"name":"value","type":"uint256","indexed":false,"internalType":"uint256"}],"anonymous":false},{"type":"event","name":"Mint","inputs":[{"name":"to","type":"address","indexed":true,"internalType":"address"},{"name":"value","type":"uint256","indexed":false,"internalType":"uint256"}],"anonymous":false},{"type":"event","name":"ProtocolAuthorized","inputs":[{"name":"protocol","type":"address","indexed":true,"internalType":"address"},{"name":"authorized","type":"bool","indexed":false,"internalType":"bool"}],"anonymous":false},{"type":"event","name":"SharedPoolDeposit","inputs":[{"name":"user","type":"address","indexed":true,"internalType":"address"},{"name":"amount","type":"uint256","indexed":false,"internalType":"uint256"}],"anonymous":false},{"type":"event","name":"SharedPoolWithdraw","inputs":[{"name":"user","type":"address","indexed":true,"internalType":"address"},{"name":"amount","type":"uint256","indexed":false,"internalType":"uint256"}],"anonymous":false},{"type":"event","name":"Transfer","inputs":[{"name":"from","type":"address","indexed":true,"internalType":"address"},{"name":"to","type":"address","indexed":true,"internalType":"address"},{"name":"value","type":"uint256","indexed":false,"internalType":"uint256"}],"anonymous":false}],"bytecode":{"object":"0x608060405234801561000f575f5ffd5b5060405161293e38038061293e83398181016040528101906100319190610320565b835f908161003f91906105c3565b50826001908161004f91906105c3565b508160025f6101000a81548160ff021916908360ff1602179055503360065f6101000a81548173ffffffffffffffffffffffffffffffffffffffff021916908373ffffffffffffffffffffffffffffffffffffffff1602179055505f81111561016157806003819055508060045f3373ffffffffffffffffffffffffffffffffffffffff1673ffffffffffffffffffffffffffffffffffffffff1681526020019081526020015f20819055503373ffffffffffffffffffffffffffffffffffffffff165f73ffffffffffffffffffffffffffffffffffffffff167fddf252ad1be2c89b69c2b068fc378daa952ba7f163c4a11628f55a4df523b3ef8360405161015891906106a1565b60405180910390a35b505050506106ba565b5f604051905090565b5f5ffd5b5f5ffd5b5f5ffd5b5f5ffd5b5f601f19601f8301169050919050565b7f4e487b71000000000000000000000000000000000000000000000000000000005f52604160045260245ffd5b6101c982610183565b810181811067ffffffffffffffff821117156101e8576101e7610193565b5b80604052505050565b5f6101fa61016a565b905061020682826101c0565b919050565b5f67ffffffffffffffff82111561022557610224610193565b5b61022e82610183565b9050602081019050919050565b8281835e5f83830152505050565b5f61025b6102568461020b565b6101f1565b9050828152602081018484840111156102775761027661017f565b5b61028284828561023b565b509392505050565b5f82601f83011261029e5761029d61017b565b5b81516102ae848260208601610249565b91505092915050565b5f60ff82169050919050565b6102cc816102b7565b81146102d6575f5ffd5b50565b5f815190506102e7816102c3565b92915050565b5f819050919050565b6102ff816102ed565b8114610309575f5ffd5b50565b5f8151905061031a816102f6565b92915050565b5f5f5f5f6080858703121561033857610337610173565b5b5f85015167ffffffffffffffff81111561035557610354610177565b5b6103618782880161028a565b945050602085015167ffffffffffffffff81111561038257610381610177565b5b61038e8782880161028a565b935050604061039f878288016102d9565b92505060606103b08782880161030c565b91505092959194509250565b5f81519050919050565b7f4e487b71000000000000000000000000000000000000000000000000000000005f52602260045260245ffd5b5f600282049050600182168061040a57607f821691505b60208210810361041d5761041c6103c6565b5b50919050565b5f819050815f5260205f209050919050565b5f6020601f8301049050919050565b5f82821b905092915050565b5f6008830261047f7fffffffffffffffffffffffffffffffffffffffffffffffffffffffffffffffff82610444565b6104898683610444565b95508019841693508086168417925050509392505050565b5f819050919050565b5f6104c46104bf6104ba846102ed565b6104a1565b6102ed565b9050919050565b5f819050919050565b6104dd836104aa565b6104f16104e9826104cb565b848454610450565b825550505050565b5f5f905090565b6105086104f9565b6105138184846104d4565b505050565b5b818110156105365761052b5f82610500565b600181019050610519565b5050565b601f82111561057b5761054c81610423565b61055584610435565b81016020851015610564578190505b61057861057085610435565b830182610518565b50505b505050565b5f82821c905092915050565b5f61059b5f1984600802610580565b1980831691505092915050565b5f6105b3838361058c565b9150826002028217905092915050565b6105cc826103bc565b67ffffffffffffffff8111156105e5576105e4610193565b5b6105ef82546103f3565b6105fa82828561053a565b5f60209050601f83116001811461062b575f8415610619578287015190505b61062385826105a8565b86555061068a565b601f19841661063986610423565b5f5b828110156106605784890151825560018201915060208501945060208101905061063b565b8683101561067d5784890151610679601f89168261058c565b8355505b6001600288020188555050505b505050505050565b61069b816102ed565b82525050565b5f6020820190506106b45f830184610692565b92915050565b612277806106c75f395ff3fe608060405234801561000f575f5ffd5b5060043610610140575f3560e01c806370a08231116100b6578063a2ac76371161007a578063a2ac76371461038e578063a9059cbb146103be578063db34ab74146103ee578063dd62ed3e1461040a578063ecf3445d1461043a578063f7b44de41461046a57610140565b806370a08231146102e8578063776c0195146103185780638da5cb5b1461033457806395d89b41146103525780639a92eed31461037057610140565b806323b872dd1161010857806323b872dd146101fc578063313ce5671461022c57806340c10f191461024a57806340c340ec146102665780635a9b0b8914610296578063691ed643146102b857610140565b806305c357501461014457806306fdde0314610174578063095ea7b31461019257806318160ddd146101c257806318bc87e4146101e0575b5f5ffd5b61015e600480360381019061015991906119e3565b610486565b60405161016b9190611a81565b60405180910390f35b61017c6106f6565b6040516101899190611b0a565b60405180910390f35b6101ac60048036038101906101a79190611b2a565b610781565b6040516101b99190611a81565b60405180910390f35b6101ca61086e565b6040516101d79190611b77565b60405180910390f35b6101fa60048036038101906101f59190611bba565b610874565b005b61021660048036038101906102119190611bf8565b6109a9565b6040516102239190611a81565b60405180910390f35b610234610cf7565b6040516102419190611c63565b60405180910390f35b610264600480360381019061025f9190611b2a565b610d09565b005b610280600480360381019061027b9190611c7c565b610f28565b60405161028d9190611a81565b60405180910390f35b61029e610f45565b6040516102af959493929190611cb6565b60405180910390f35b6102d260048036038101906102cd9190611c7c565b6110a7565b6040516102df9190611b77565b60405180910390f35b61030260048036038101906102fd9190611c7c565b611135565b60405161030f9190611b77565b60405180910390f35b610332600480360381019061032d9190611d15565b61114a565b005b61033c6112d9565b6040516103499190611d40565b60405180910390f35b61035a6112fe565b6040516103679190611b0a565b60405180910390f35b61037861138a565b6040516103859190611b77565b60405180910390f35b6103a860048036038101906103a39190611c7c565b611390565b6040516103b59190611b77565b60405180910390f35b6103d860048036038101906103d39190611b2a565b6113a5565b6040516103e59190611a81565b60405180910390f35b61040860048036038101906104039190611d15565b6115a9565b005b610424600480360381019061041f9190611d59565b611738565b6040516104319190611b77565b60405180910390f35b610454600480360381019061044f9190611bf8565b611758565b6040516104619190611a81565b60405180910390f35b610484600480360381019061047f9190611b2a565b6117f5565b005b5f60075f3373ffffffffffffffffffffffffffffffffffffffff1673ffffffffffffffffffffffffffffffffffffffff1681526020019081526020015f205f9054906101000a900460ff16610510576040517f08c379a000000000000000000000000000000000000000000000000000000000815260040161050790611de1565b60405180910390fd5b3073ffffffffffffffffffffffffffffffffffffffff168673ffffffffffffffffffffffffffffffffffffffff161461057e576040517f08c379a000000000000000000000000000000000000000000000000000000000815260040161057590611e49565b60405180910390fd5b8460085f8673ffffffffffffffffffffffffffffffffffffffff1673ffffffffffffffffffffffffffffffffffffffff1681526020019081526020015f205410156105fe576040517f08c379a00000000000000000000000000000000000000000000000000000000081526004016105f590611eb1565b60405180910390fd5b8460085f8673ffffffffffffffffffffffffffffffffffffffff1673ffffffffffffffffffffffffffffffffffffffff1681526020019081526020015f205f82825461064a9190611efc565b925050819055508460095f8282546106629190611efc565b925050819055508373ffffffffffffffffffffffffffffffffffffffff168673ffffffffffffffffffffffffffffffffffffffff163373ffffffffffffffffffffffffffffffffffffffff167fa63984090ab3ab44d2b893ee0e2d25a3b13e504634dde4fc12d5956a3ae680808887876040516106e193929190611f79565b60405180910390a46001905095945050505050565b5f805461070290611fd6565b80601f016020809104026020016040519081016040528092919081815260200182805461072e90611fd6565b80156107795780601f1061075057610100808354040283529160200191610779565b820191905f5260205f20905b81548152906001019060200180831161075c57829003601f168201915b505050505081565b5f8160055f3373ffffffffffffffffffffffffffffffffffffffff1673ffffffffffffffffffffffffffffffffffffffff1681526020019081526020015f205f8573ffffffffffffffffffffffffffffffffffffffff1673ffffffffffffffffffffffffffffffffffffffff1681526020019081526020015f20819055508273ffffffffffffffffffffffffffffffffffffffff163373ffffffffffffffffffffffffffffffffffffffff167f8c5be1e5ebec7d5bd14f71427d1e84f3dd0314c0f7b2291e5b200ac8c7c3b9258460405161085c9190611b77565b60405180910390a36001905092915050565b60035481565b60065f9054906101000a900473ffffffffffffffffffffffffffffffffffffffff1673ffffffffffffffffffffffffffffffffffffffff163373ffffffffffffffffffffffffffffffffffffffff1614610903576040517f08c379a00000000000000000000000000000000000000000000000000000000081526004016108fa90612050565b60405180910390fd5b8060075f8473ffffffffffffffffffffffffffffffffffffffff1673ffffffffffffffffffffffffffffffffffffffff1681526020019081526020015f205f6101000a81548160ff0219169083151502179055508173ffffffffffffffffffffffffffffffffffffffff167f68a5f73b4ad49573fdcbd5e548404a298dea33f94c1475d4f7825a23232637f38260405161099d9190611a81565b60405180910390a25050565b5f5f73ffffffffffffffffffffffffffffffffffffffff168373ffffffffffffffffffffffffffffffffffffffff1603610a18576040517f08c379a0000000000000000000000000000000000000000000000000000000008152600401610a0f906120b8565b60405180910390fd5b8160045f8673ffffffffffffffffffffffffffffffffffffffff1673ffffffffffffffffffffffffffffffffffffffff1681526020019081526020015f20541015610a98576040517f08c379a0000000000000000000000000000000000000000000000000000000008152600401610a8f90612120565b60405180910390fd5b8160055f8673ffffffffffffffffffffffffffffffffffffffff1673ffffffffffffffffffffffffffffffffffffffff1681526020019081526020015f205f3373ffffffffffffffffffffffffffffffffffffffff1673ffffffffffffffffffffffffffffffffffffffff1681526020019081526020015f20541015610b53576040517f08c379a0000000000000000000000000000000000000000000000000000000008152600401610b4a90612188565b60405180910390fd5b8160045f8673ffffffffffffffffffffffffffffffffffffffff1673ffffffffffffffffffffffffffffffffffffffff1681526020019081526020015f205f828254610b9f9190611efc565b925050819055508160045f8573ffffffffffffffffffffffffffffffffffffffff1673ffffffffffffffffffffffffffffffffffffffff1681526020019081526020015f205f828254610bf291906121a6565b925050819055508160055f8673ffffffffffffffffffffffffffffffffffffffff1673ffffffffffffffffffffffffffffffffffffffff1681526020019081526020015f205f3373ffffffffffffffffffffffffffffffffffffffff1673ffffffffffffffffffffffffffffffffffffffff1681526020019081526020015f205f828254610c809190611efc565b925050819055508273ffffffffffffffffffffffffffffffffffffffff168473ffffffffffffffffffffffffffffffffffffffff167fddf252ad1be2c89b69c2b068fc378daa952ba7f163c4a11628f55a4df523b3ef84604051610ce49190611b77565b60405180910390a3600190509392505050565b60025f9054906101000a900460ff1681565b60065f9054906101000a900473ffffffffffffffffffffffffffffffffffffffff1673ffffffffffffffffffffffffffffffffffffffff163373ffffffffffffffffffffffffffffffffffffffff1614610d98576040517f08c379a0000000000000000000000000000000000000000000000000000000008152600401610d8f90612050565b60405180910390fd5b5f73ffffffffffffffffffffffffffffffffffffffff168273ffffffffffffffffffffffffffffffffffffffff1603610e06576040517f08c379a0000000000000000000000000000000000000000000000000000000008152600401610dfd90612223565b60405180910390fd5b8060035f828254610e1791906121a6565b925050819055508060045f8473ffffffffffffffffffffffffffffffffffffffff1673ffffffffffffffffffffffffffffffffffffffff1681526020019081526020015f205f828254610e6a91906121a6565b925050819055508173ffffffffffffffffffffffffffffffffffffffff167f0f6798a560793a54c3bcfe86a93cde1e73087d944c0ea20544137d412139688582604051610eb79190611b77565b60405180910390a28173ffffffffffffffffffffffffffffffffffffffff165f73ffffffffffffffffffffffffffffffffffffffff167fddf252ad1be2c89b69c2b068fc378daa952ba7f163c4a11628f55a4df523b3ef83604051610f1c9190611b77565b60405180910390a35050565b6007602052805f5260405f205f915054906101000a900460ff1681565b6060805f5f5f5f600160025f9054906101000a900460ff1660035460065f9054906101000a900473ffffffffffffffffffffffffffffffffffffffff16848054610f8e90611fd6565b80601f0160208091040260200160405190810160405280929190818152602001828054610fba90611fd6565b80156110055780601f10610fdc57610100808354040283529160200191611005565b820191905f5260205f20905b815481529060010190602001808311610fe857829003601f168201915b5050505050945083805461101890611fd6565b80601f016020809104026020016040519081016040528092919081815260200182805461104490611fd6565b801561108f5780601f106110665761010080835404028352916020019161108f565b820191905f5260205f20905b81548152906001019060200180831161107257829003601f168201915b50505050509350945094509450945094509091929394565b5f60085f8373ffffffffffffffffffffffffffffffffffffffff1673ffffffffffffffffffffffffffffffffffffffff1681526020019081526020015f205460045f8473ffffffffffffffffffffffffffffffffffffffff1673ffffffffffffffffffffffffffffffffffffffff1681526020019081526020015f205461112e91906121a6565b9050919050565b6004602052805f5260405f205f915090505481565b8060045f3373ffffffffffffffffffffffffffffffffffffffff1673ffffffffffffffffffffffffffffffffffffffff1681526020019081526020015f205410156111ca576040517f08c379a00000000000000000000000000000000000000000000000000000000081526004016111c190612120565b60405180910390fd5b8060045f3373ffffffffffffffffffffffffffffffffffffffff1673ffffffffffffffffffffffffffffffffffffffff1681526020019081526020015f205f8282546112169190611efc565b925050819055508060085f3373ffffffffffffffffffffffffffffffffffffffff1673ffffffffffffffffffffffffffffffffffffffff1681526020019081526020015f205f82825461126991906121a6565b925050819055508060095f82825461128191906121a6565b925050819055503373ffffffffffffffffffffffffffffffffffffffff167fe3b174414a812c16ef0e47dcd5fd40b9df914b390de0652a2cd53c32b52443e5826040516112ce9190611b77565b60405180910390a250565b60065f9054906101000a900473ffffffffffffffffffffffffffffffffffffffff1681565b6001805461130b90611fd6565b80601f016020809104026020016040519081016040528092919081815260200182805461133790611fd6565b80156113825780601f1061135957610100808354040283529160200191611382565b820191905f5260205f20905b81548152906001019060200180831161136557829003601f168201915b505050505081565b60095481565b6008602052805f5260405f205f915090505481565b5f5f73ffffffffffffffffffffffffffffffffffffffff168373ffffffffffffffffffffffffffffffffffffffff1603611414576040517f08c379a000000000000000000000000000000000000000000000000000000000815260040161140b906120b8565b60405180910390fd5b8160045f3373ffffffffffffffffffffffffffffffffffffffff1673ffffffffffffffffffffffffffffffffffffffff1681526020019081526020015f20541015611494576040517f08c379a000000000000000000000000000000000000000000000000000000000815260040161148b90612120565b60405180910390fd5b8160045f3373ffffffffffffffffffffffffffffffffffffffff1673ffffffffffffffffffffffffffffffffffffffff1681526020019081526020015f205f8282546114e09190611efc565b925050819055508160045f8573ffffffffffffffffffffffffffffffffffffffff1673ffffffffffffffffffffffffffffffffffffffff1681526020019081526020015f205f82825461153391906121a6565b925050819055508273ffffffffffffffffffffffffffffffffffffffff163373ffffffffffffffffffffffffffffffffffffffff167fddf252ad1be2c89b69c2b068fc378daa952ba7f163c4a11628f55a4df523b3ef846040516115979190611b77565b60405180910390a36001905092915050565b8060085f3373ffffffffffffffffffffffffffffffffffffffff1673ffffffffffffffffffffffffffffffffffffffff1681526020019081526020015f20541015611629576040517f08c379a000000000000000000000000000000000000000000000000000000000815260040161162090611eb1565b60405180910390fd5b8060085f3373ffffffffffffffffffffffffffffffffffffffff1673ffffffffffffffffffffffffffffffffffffffff1681526020019081526020015f205f8282546116759190611efc565b925050819055508060095f82825461168d9190611efc565b925050819055508060045f3373ffffffffffffffffffffffffffffffffffffffff1673ffffffffffffffffffffffffffffffffffffffff1681526020019081526020015f205f8282546116e091906121a6565b925050819055503373ffffffffffffffffffffffffffffffffffffffff167fe70f41bca7dd2596d7442c9ebb9934b1973602871b1d8d34f0b22500939557fd8260405161172d9190611b77565b60405180910390a250565b6005602052815f5260405f20602052805f5260405f205f91509150505481565b5f60075f8573ffffffffffffffffffffffffffffffffffffffff1673ffffffffffffffffffffffffffffffffffffffff1681526020019081526020015f205f9054906101000a900460ff1680156117ec57508160085f8573ffffffffffffffffffffffffffffffffffffffff1673ffffffffffffffffffffffffffffffffffffffff1681526020019081526020015f205410155b90509392505050565b60075f3373ffffffffffffffffffffffffffffffffffffffff1673ffffffffffffffffffffffffffffffffffffffff1681526020019081526020015f205f9054906101000a900460ff1661187e576040517f08c379a000000000000000000000000000000000000000000000000000000000815260040161187590611de1565b60405180910390fd5b8060085f8473ffffffffffffffffffffffffffffffffffffffff1673ffffffffffffffffffffffffffffffffffffffff1681526020019081526020015f205f8282546118ca91906121a6565b925050819055508060095f8282546118e291906121a6565b925050819055505050565b5f5ffd5b5f5ffd5b5f73ffffffffffffffffffffffffffffffffffffffff82169050919050565b5f61191e826118f5565b9050919050565b61192e81611914565b8114611938575f5ffd5b50565b5f8135905061194981611925565b92915050565b5f819050919050565b6119618161194f565b811461196b575f5ffd5b50565b5f8135905061197c81611958565b92915050565b5f5ffd5b5f5ffd5b5f5ffd5b5f5f83601f8401126119a3576119a2611982565b5b8235905067ffffffffffffffff8111156119c0576119bf611986565b5b6020830191508360018202830111156119dc576119db61198a565b5b9250929050565b5f5f5f5f5f608086880312156119fc576119fb6118ed565b5b5f611a098882890161193b565b9550506020611a1a8882890161196e565b9450506040611a2b8882890161193b565b935050606086013567ffffffffffffffff811115611a4c57611a4b6118f1565b5b611a588882890161198e565b92509250509295509295909350565b5f8115159050919050565b611a7b81611a67565b82525050565b5f602082019050611a945f830184611a72565b92915050565b5f81519050919050565b5f82825260208201905092915050565b8281835e5f83830152505050565b5f601f19601f8301169050919050565b5f611adc82611a9a565b611ae68185611aa4565b9350611af6818560208601611ab4565b611aff81611ac2565b840191505092915050565b5f6020820190508181035f830152611b228184611ad2565b905092915050565b5f5f60408385031215611b4057611b3f6118ed565b5b5f611b4d8582860161193b565b9250506020611b5e8582860161196e565b9150509250929050565b611b718161194f565b82525050565b5f602082019050611b8a5f830184611b68565b92915050565b611b9981611a67565b8114611ba3575f5ffd5b50565b5f81359050611bb481611b90565b92915050565b5f5f60408385031215611bd057611bcf6118ed565b5b5f611bdd8582860161193b565b9250506020611bee85828601611ba6565b9150509250929050565b5f5f5f60608486031215611c0f57611c0e6118ed565b5b5f611c1c8682870161193b565b9350506020611c2d8682870161193b565b9250506040611c3e8682870161196e565b9150509250925092565b5f60ff82169050919050565b611c5d81611c48565b82525050565b5f602082019050611c765f830184611c54565b92915050565b5f60208284031215611c9157611c906118ed565b5b5f611c9e8482850161193b565b91505092915050565b611cb081611914565b82525050565b5f60a0820190508181035f830152611cce8188611ad2565b90508181036020830152611ce28187611ad2565b9050611cf16040830186611c54565b611cfe6060830185611b68565b611d0b6080830184611ca7565b9695505050505050565b5f60208284031215611d2a57611d296118ed565b5b5f611d378482850161196e565b91505092915050565b5f602082019050611d535f830184611ca7565b92915050565b5f5f60408385031215611d6f57611d6e6118ed565b5b5f611d7c8582860161193b565b9250506020611d8d8582860161193b565b9150509250929050565b7f50726f746f636f6c206e6f7420617574686f72697a65640000000000000000005f82015250565b5f611dcb601783611aa4565b9150611dd682611d97565b602082019050919050565b5f6020820190508181035f830152611df881611dbf565b9050919050565b7f496e76616c696420746f6b656e206164647265737300000000000000000000005f82015250565b5f611e33601583611aa4565b9150611e3e82611dff565b602082019050919050565b5f6020820190508181035f830152611e6081611e27565b9050919050565b7f496e73756666696369656e742073686172656420706f6f6c2062616c616e63655f82015250565b5f611e9b602083611aa4565b9150611ea682611e67565b602082019050919050565b5f6020820190508181035f830152611ec881611e8f565b9050919050565b7f4e487b71000000000000000000000000000000000000000000000000000000005f52601160045260245ffd5b5f611f068261194f565b9150611f118361194f565b9250828203905081811115611f2957611f28611ecf565b5b92915050565b5f82825260208201905092915050565b828183375f83830152505050565b5f611f588385611f2f565b9350611f65838584611f3f565b611f6e83611ac2565b840190509392505050565b5f604082019050611f8c5f830186611b68565b8181036020830152611f9f818486611f4d565b9050949350505050565b7f4e487b71000000000000000000000000000000000000000000000000000000005f52602260045260245ffd5b5f6002820490506001821680611fed57607f821691505b60208210810361200057611fff611fa9565b5b50919050565b7f4e6f74206f776e657200000000000000000000000000000000000000000000005f82015250565b5f61203a600983611aa4565b915061204582612006565b602082019050919050565b5f6020820190508181035f8301526120678161202e565b9050919050565b7f5472616e7366657220746f207a65726f206164647265737300000000000000005f82015250565b5f6120a2601883611aa4565b91506120ad8261206e565b602082019050919050565b5f6020820190508181035f8301526120cf81612096565b9050919050565b7f496e73756666696369656e742062616c616e63650000000000000000000000005f82015250565b5f61210a601483611aa4565b9150612115826120d6565b602082019050919050565b5f6020820190508181035f830152612137816120fe565b9050919050565b7f496e73756666696369656e7420616c6c6f77616e6365000000000000000000005f82015250565b5f612172601683611aa4565b915061217d8261213e565b602082019050919050565b5f6020820190508181035f83015261219f81612166565b9050919050565b5f6121b08261194f565b91506121bb8361194f565b92508282019050808211156121d3576121d2611ecf565b5b92915050565b7f4d696e7420746f207a65726f20616464726573730000000000000000000000005f82015250565b5f61220d601483611aa4565b9150612218826121d9565b602082019050919050565b5f6020820190508181035f83015261223a81612201565b905091905056fea264697066735822122081c924b1a64466fb2fd0288c5eb1f418552e5939b81ba3c9f86ee99adff268a664736f6c634300081c0033","linkReferences":{}},"methodIdentifiers":{"accessAssets(address,uint256,address,bytes)":"05c35750","allowance(address,address)":"dd62ed3e","approve(address,uint256)":"095ea7b3","authorizeProtocol(address,bool)":"18bc87e4","authorizedProtocols(address)":"40c340ec","balanceOf(address)":"70a08231","canAccessAssets(address,address,uint256)":"ecf3445d","decimals()":"313ce567","depositToSharedPool(uint256)":"776c0195","getInfo()":"5a9b0b89","getTotalAccessibleBalance(address)":"691ed643","mint(address,uint256)":"40c10f19","name()":"06fdde03","owner()":"8da5cb5b","returnAssets(address,uint256)":"f7b44de4","sharedPoolBalance(address)":"a2ac7637","symbol()":"95d89b41","totalSharedPool()":"9a92eed3","totalSupply()":"18160ddd","transfer(address,uint256)":"a9059cbb","transferFrom(address,address,uint256)":"23b872dd","withdrawFromSharedPool(uint256)":"db34ab74"},"id":16}